:020000040800F2
:1000000080710020617A0008277A0008297A0008A8
:100010002B7A00082D7A00082F7A000800000000D3
:10002000000000000000000000000000317A00081D
:10003000337A000800000000357A0008377A00089B
:100040008B7A00088F7A0008937A0008977A000864
:100050009B7A00089F7A0008A37A0008A77A000814
:10006000AB7A0008AF7A0008B37A0008B77A0008C4
:10007000BB7A0008BF7A0008C37A0008C77A000874
:10008000CB7A0008CF7A0008D37A0008000000007D
:10009000000000000000000000000000D77A000807
:1000A000DB7A0008DF7A0008E37A0008E77A0008C4
:1000B000EB7A0008EF7A0008F37A0008F77A000874
:1000C000FB7A0008FF7A0008037B0008077B000822
:1000D0000B7B00080F7B0008137B0008000000006A
:1000E000177B00081B7B00081F7B00080000000036
:1000F000000000000000000000000000237B00085A
:1001000000000000277B00082B7B00082F7B0008E5
:1001100000000000000000000000000000000000DF
:10012000337B0008377B00083B7B00083F7B0008DF
:10013000437B0008000000000000000000000000F9
:10014000000000000000000000000000477B0008E5
:100150004B7B00084F7B0008537B0008577B00084F
:100160005B7B00085F7B00080000000000000000CF
:10017000000000000000000000000000000000007F
:1001800000000000637B0008000000000000000089
:10019000677B00086B7B0008C178827842EA012205
:1001A0004178007841EA022140EA0120704770B4AA
:1001B000494C236800220025A3B10668B34202BF60
:1001C00063688668B34202BFA3684669B3420AD136
:1001D00029B904EB05108189B1F5807F16D170BC77
:1001E000102070470122236901257BB10668B342C4
:1001F00002BF63698668B34202BFA3694069834254
:10020000E6D01AB9022918BF122000D1002070BC14
:100210007047F0B4304E056833680022AB4202BF2D
:1002200074688768BC4202BFB4684769BC421CD08E
:1002300034690122AC4202BF7769D0F808C0674533
:1002400002BFB769D0F814C067450ED00022002B5A
:100250001CBF0122002C0DD106EB02131D60846827
:100260005C600024406998609C8106EB02139889C9
:1002700031B110B1F0BC002070474FF4807000E045
:10028000401C9881501CF0BC7047401E022814D2BC
:10029000000111490A189389B3F5807F18BF5FEAFE
:1002A000030C02D10023938103E05B1E93819BB278
:1002B0000BB900220A5000207047022070470649FF
:1002C0000A68824204BF00230B600A69824204BFAD
:1002D000002008617047000028310020F0B5064674
:1002E00081B0F078002508B3376B707801233A4667
:1002F00006F1340101F0C4FB18B10125284601B014
:10030000F0BDF070716AF069791A81420ED2B4784A
:10031000012C0BD9641EF069C719707801233A4685
:1003200006F1340101F0ACFB641EF4D1284601B0A3
:10033000F0BD70B504460D46206B0026854210D0F6
:100340002046FFF7CBFF06000BD1607801232A4639
:1003500004F1340101F089FB10B14FF0FF350126A3
:100360002563304670BD30B581B00446FFF7B6FF57
:10037000050053D12078032804BF2079012846D1F5
:10038000A08904F134010022401E01F8012BFBD1A9
:10039000552084F83202AA21522084F8340084F8CF
:1003A000350084F83312612084F836004121722030
:1003B00084F8180284F8190284F83710412084F870
:1003C0001A0261216069226A84F81C0284F81B12F7
:1003D000000A84F81D02521C000A84F81E022263DF
:1003E000000A84F81F020123206984F8200204F126
:1003F0003401000A84F82102000A84F82202000A6B
:1004000084F82302607801F03BFB00202071002279
:100410006078002101F03FFB00B10125284601B0C2
:1004200030BD8269891E921E914201D3002070471F
:100430004289C06A02FB0101084670472DE9F0417C
:100440000C460568022C72D3A86984426FD22978C1
:1004500001294FF0FF3604D069D303294DD032D3A0
:1004600065E0A889696A04EB5408B8FBF0F041180C
:100470002846FFF75EFF00285AD1A88908F1010736
:10048000B8FBF0F100FB118805F13402696A12F83B
:100490000880B7FBF0F041182846FFF74AFF002814
:1004A00046D1A889B7FBF0F100FB117705F13400C4
:1004B000C25D48EA0226E00754BFC6F30B063609C0
:1004C0003046BDE8F081AA89696A5208B4FBF2F0AF
:1004D00041182846FFF72DFF50BBA8896400B4FBE4
:1004E000F0F100FB114405F1340020444278067815
:1004F00046EA02263046BDE8F081AA89696A920878
:10050000B4FBF2F041182846FFF713FF80B9A88921
:10051000A400B4FBF0F100FB114405F134002044C9
:10052000FFF73AFE20F070463046BDE8F081012624
:100530003046BDE8F0812DE9F0430C460227022C3D
:1005400081B006461546C0F09F80B069844280F0B5
:100550009B803178012908D0C0F09680032967D0AC
:1005600047D3384601B0BDE8F083B089716A04EB27
:100570005409B9FBF0F041183046FFF7DAFE0028C5
:10058000074640F08180B08909F10108B9FBF0F11C
:1005900000FB119906F13400484414F001041DBF1A
:1005A000017801F00F0141EA05112946017001208F
:1005B000F070B089716AB8FBF0F041183046FFF76F
:1005C000B8FE002807465FD1B089B8FBF0F100FB08
:1005D000118806F13400404414B12D09057051E032
:1005E00001782D0A01F0F00105F00F050D430570AB
:1005F00048E0B289716A5208B4FBF2F04118304603
:10060000FFF797FE002807463ED1B0896400B4FB8F
:10061000F0F100FB114406F1340020440121057083
:100620002D042D0E4570F170384601B0BDE8F08301
:10063000B289716A9208B4FBF2F041183046FFF7B4
:1006400078FE074600BBB089A400B4FBF0F100FBC4
:10065000114006F134021044FFF79EFDB18925F0E8
:10066000704500F070400543B4FBF1F001FB10440D
:1006700006F13401081905702D0A45702D0A8570A0
:100680002D0AC5700120F070384601B0BDE8F08336
:100690002DE9F04706460C463768012C114648D92B
:1006A000B869844245D239B14FF0FF323846FFF77E
:1006B00042FF010040F0B58021463046FFF7BEFE04
:1006C000050000F0AD80012D33D015F1010F33D0BE
:1006D000012C4FF0020940F29180B869844280F009
:1006E0008D803978012905D0C0F08880032926D073
:1006F0004DD383E0B889796A04EB5408B8FBF0F075
:1007000041183846FFF715FE0028814676D1B88992
:1007100008F1010AB8FBF0F100FB118807F1340081
:10072000404414F001041ABF017801F00F010021C8
:1007300045E00220BDE8F0870120BDE8F087B889D8
:10074000796A8008B4FBF0F251183846FFF7F1FDE2
:100750000028814652D1B889A400B4FBF0F100FB17
:10076000114007F134021044FFF716FDB989B4FBBC
:10077000F1F201FB124407F134012144000E002381
:1007800000F0F0000B704B708B70C87033E0B889CC
:10079000796A4008B4FBF0F251183846FFF7C9FDFA
:1007A000814658BBB8896400B4FBF0F100FB1144EA
:1007B00007F1340020440022027042701BE00170F7
:1007C0000120F870B889796ABAFBF0F04118384610
:1007D000FFF7AFFD814688B9B889BAFBF0F100FB9D
:1007E00011AA07F134005044002C12BF00210178F7
:1007F00001F0F00101700120F87000BF5FEA09000C
:100800000FD1B8697969821E914205D2491C79617C
:10081000397941F0010139712C468442FFF44CAF23
:100820000020BDE8F0872DE9F04180460C00D8F8A3
:10083000006006D1356915B1B06985420ED3012536
:100840000CE0FFF7FBFD012898BF01203ED910F115
:10085000010F3BD0B169884238D325462F46B06995
:100860007F1C874202D30227012D0BD9394640460F
:10087000FFF7E4FD48B1012818BF10F1010F25D0A2
:10088000AF42ECD10020BDE8F0814FF0FF32394695
:100890003046FFF750FE98B92CB13A462146304613
:1008A000FFF749FE60B93761B1697069891E8142FD
:1008B00024BF401E7061307940F00100307104E0C7
:1008C00001280CBF4FF0FF3701273846BDE8F08103
:1008D0000368C06AB3F80CC0021D5889B1FBFCF173
:1008E000B1FBF0F01168C9B1884219D3401A52F82F
:1008F000081F99B1884213D3401A52F8081F69B1F2
:1009000088420DD3401A52F8081F39B1884224BFDB
:10091000401A0832E6D25168081870470020704724
:100920005168081870472DE9F04105460E462F68BA
:10093000B6F5001F3FD216F01F0F3CD1AC686E61B8
:1009400054B93878032801DBBC6A2CB9398970099D
:10095000884230D2B86A29E07989B88900FB01F869
:1009600006E0022C27D3B869844224D2A6EB0806FD
:100970004645214617D32846FFF760FD044614F18B
:10098000010FEED10120BDE8F081B989B6FBF1F28B
:100990001018E86101FB1266B81900F134012962F0
:1009A0000020BDE8F0813846FFF73BFDE861AC610F
:1009B000E8690028E9D10220BDE8F08102461278FA
:1009C000CB7E887E032A40EA032005D14A7D097D3B
:1009D00041EA022140EA0140704713041B0E8A7667
:1009E000CB760078032803D1120C0A75120A4A75D7
:1009F000704700002DE9F04706460021D6F8009028
:100A0000FFF791FF040040F08A800025F169484615
:100A1000FFF78FFC040040F08280306A0078E52800
:100A200053D16D1C012D7CD052E00020F0610724D1
:100A300077E06089401E024262D13046FFF7FEFC3B
:100A40008046B8F1020F66D318F1010F65D0A06996
:100A5000804532D3B1693046FFF7E5FE5FEA000812
:100A6000E5D0B8F1010F56D018F1010F55D020464E
:100A7000FFF734FC002850D1A08904F13401002292
:100A8000401E01F8012BFBD1924641462046FFF75C
:100A9000C8FC0AE00120E0702046FFF71FFC002898
:100AA0003BD1206B0AF1010A401C2063608982451A
:100AB000F0D3216BA1EB0A002063C6F818804146F1
:100AC0002046FFF7AEFCF0611AE00028A9D000250F
:100AD0007769F169346820370029A8D0B7F5001F7D
:100AE000A5D2A089B7FBF0F200FB127040B9491CF7
:100AF000F161B16900299CD121897809884294D299
:100B00007761A089B7FBF0F100FB117704F13400A5
:100B1000C01930627AE7022403E0012401E0042CCA
:100B200085D020001FD1F1694846FFF702FC040080
:100B300019D1306A202100F0BBFF06F12402316A8E
:100B400012F8010B01F8010B5FF0050012F8013BF0
:100B500001F8013B401E12F8013B01F8013BF5D1C1
:100B6000012089F803002046BDE8F0872DE9F04315
:100B70000D4681B081462C6820220B2109F124000A
:100B800000F0B6FF002100225FF0080333A6DFF873
:100B9000408A03E00B2B4ED008210B2314F802C02F
:100BA000521CBCF1210F42DBBCF12F0F18BFBCF16E
:100BB0005C0F06D1A05C2F2814BF5C28521CF9D012
:100BC00035E0BCF12E0FE5D0994234D2BCF1800F54
:100BD000A4BF08EB0C0010F880CC3746387870B30F
:100BE00060451CBF17F8010F002828D060451CBFC6
:100BF00017F8010F002822D060451EBF17F8010F1B
:100C0000002860451BD07F1CE8E799F82400E52800
:100C100004BF052189F82410BCF1210FB4BF0420C2
:100C2000002089F82F0001B00020BDE8F083A01853
:100C300000292860E9D1062001B0BDE8F0833878AA
:100C40000028F8D1ACF161001A2809F1240038BF5E
:100C5000ACF1200C00F801C0491C9FE7222A2B2C84
:100C60003A3B3C3D3E3F5B5D7C7F00002DE9F24717
:100C7000044681B0D4F8009002E00198411C019133
:100C8000019800782F2818BF5C28F6D00020A060BB
:100C90000199087820282BD2802284F82F20002167
:100CA0002046FFF740FE0746384602B0BDE8F08711
:100CB000400700F1CF80A179C80640F1CA80606981
:100CC000B9F80C10B0FBF1F201FB120009F134018C
:100CD000084499F80020C37E817E032A41EA03215B
:100CE00005D1427D007D40EA022041EA0041A16039
:100CF00001A92046FFF73AFF070040F0AB802568C6
:100D0000A6680027676156B92878022801DDAE6A17
:100D10002EB92889002800F0AA80A86AA1E0698974
:100D2000A88900FB01FA08E0022EC0F0A080A869A3
:100D3000864280F09C80A7EB0A0757453146C0F0F9
:100D40008D802046FFF77AFB064616F1010FEBD1A6
:100D500001278FE0A989B7FBF1F21018E06101FBD0
:100D6000127705F1340038441EE07889401E0242B3
:100D700010D12046FFF762FB022878D310F1010F53
:100D8000E6D0B969884261D2A06101463846FFF7D2
:100D900048FBE061C4F81480B889B8FBF0F100FBAF
:100DA000118807F13400404420620027D4F81C80E9
:100DB000286B804511D02846FFF790FA07000CD128
:100DC00068780123424605F1340100F04EFE10B16F
:100DD0004FF0FF380127C5F8308038004AD1226A29
:100DE0001078002845D0D07A00F03F00A071D07A6A
:100DF000010711D40B2104F1240316781878301A56
:100E0000491E08D038B956785878301A9B1C921C65
:100E1000491E0028F1D068B360692768E16900F1D4
:100E2000200831B3B8F5001F23D2B889B8FBF0F21F
:100E300000FB12800028ADD1491CE161A1690029A5
:100E400093D139894FEA58108842A3D30020E0613A
:100E50000FE00527384602B0BDE8F0872846FFF7C7
:100E6000E0FAE061A661E06900287FF473AF022731
:100E700000E0042794F82F0039003FF419AF042F45
:100E8000E8D14007E6D4E4E710B403684FF0FF313F
:100E9000DBB11C462278212A1AD33A2A18D014F83A
:100EA000012F212A14D33A2A12D014F8012F212A13
:100EB0000ED33A2A0CD014F8012F212A08D33A2A4B
:100EC00018BF641CE6D103E0002110BC084670473F
:100ED00022783A2AF8D113F8012B303A0A2AF4D2B0
:100EE000A34208BF002AF0D1631C0021036008461A
:100EF00010BC704710B5044600224FF0FF33E2707B
:100F00002363FFF716FA08B1042010BD94F83302EA
:100F100094F8321241EA00214AF65520814201D06C
:100F2000032010BD94F83400E92805D0EB2804BF55
:100F300094F83600902813D104F16A00FFF72CF9D9
:100F400020F07F40DFF88C16884207D004F186003D
:100F5000FFF722F9DFF88016884201D1002010BD8A
:100F6000022010BD2DE9F0470E4684B0002131600B
:100F70001446FFF789FF070048BF0B2000F1BE8130
:100F8000DFF858A60AF1040050F827501DB90C20CC
:100F900004B0BDE8F087356004F0FE04287850B155
:100FA000687800F045FDC10705D4002C00F0A5814C
:100FB00040070ED4A1E1002028706F70687800F01F
:100FC00040FDC10748BF032000F198812CB14007C4
:100FD00003D50A2004B0BDE8F087687805F10C025B
:100FE000022100F058FD002840F0A980A889A0F552
:100FF000007140F60162914280F0A180411E0842DA
:1010000040F09D8000244FF0FF37EC702F6328469E
:10101000FFF764F9002840F09280687801230022ED
:1010200005F1340100F021FDC8BB28634AF65528BC
:1010300095F8330295F8321241EA0021414540F01B
:101040001A8195F83400E92805D0EB2804BF95F8FB
:101050003600902811D105F16A00FFF79DF820F0C5
:101060007F40DFF87015884270D005F18600FFF7E9
:1010700093F8DFF86415884268D095F8F60198B1C6
:1010800095F8FD0195F8FC1195F8FB2141EA002146
:1010900095F8FA0142EA012240EA022004E02F63B7
:1010A000012004B0BDE8F087009095F8060268B111
:1010B00095F80D0295F80C1295F80B2241EA0021E3
:1010C00095F80A0242EA012240EA0220019095F8CE
:1010D000160268B195F81D0295F81C2295F81B328E
:1010E00042EA002295F81A0243EA022340EA03206A
:1010F000029095F8260268B195F82D0295F82C22F9
:1011000095F82B3242EA002295F82A0243EA02239C
:1011100040EA03200390A1466E46346824B121467C
:101120002846FFF7E7FE00E00320012805DD09F16E
:101130000109361DB9F1040FEFD3042803D10120B2
:1011400004B0BDE8F087012800F3958095F84000D1
:1011500095F83F1041EA0021A889814240F08B8038
:1011600095F84B1095F84A0050EA012004BF05F1AC
:101170005800FFF711F895F84410E861012918BFED
:101180000229A97077D101FB00F995F84100688127
:10119000010070D0421E10426DD195F8461095F8AE
:1011A000450040EA0120A9892881490990FBF1F214
:1011B00001FB120000285ED195F8480095F8471011
:1011C00051EA002104D105F15400FEF7E5FF014684
:1011D00095F8430095F8422052EA00224BD0AE89A0
:1011E0002889760909EB020C90FBF6F39C446145D3
:1011F00041D36B89A1EB0C01B1FBF3F100293AD08B
:1012000003264FF6F673994238BF022640F6F6736E
:10121000994238BF0126891C1219A444032EA961E2
:101220002C626A62C5F82CC00FD195F85F1095F852
:101230005E2052EA012208BF00281CD105F160009F
:10124000FEF7AAFFA96989000CE0A0B1686AA96944
:10125000022E48440FBF490001EB410201F0010199
:1012600001EB5201A862A889421E5118B1FBF0F0AF
:10127000E969814203D20D2004B0BDE8F0878020E7
:1012800028716F612F61032E01BF95F8650095F8F5
:10129000641041EA0021012925D1611C2846FFF78D
:1012A00048F800BB287195F8331295F8320240EAED
:1012B0000120404517D105F13400FEF76DFFC84904
:1012C000884210D105F50670FEF766FFC5498842D1
:1012D00009D105F50770FEF75FFF686105F5087035
:1012E000FEF75AFF28612E70BAF80000401CAAF8D9
:1012F0000000E8802846FEF7E2FF002004B0BDE8C9
:10130000F08773B51546C9B10878212820D33A284B
:101310001ED011F8010F21281AD33A2818D011F83D
:10132000010F212814D33A2812D011F8010F2128D7
:101330000ED33A2818BF491CE6D109E00B2002B0B1
:1013400070BD0022694601A8FFF70CFE02B070BD17
:1013500008783A2809D1019A12F8010B30380A2886
:10136000ECD28A4208BF0028E8D19C4E746824B1B0
:101370002046FEF7A4FF00212170009808B100214B
:10138000017000990098716008B1012DD9D000203A
:1013900002B070BD2DE9F24104008DB008BF0920F4
:1013A00000F0138102F03F073A4669460DA8FFF7A7
:1013B000D9FD060040F0068100980D99019001A822
:1013C000FFF754FC06000FD19DF83300010648BF1B
:1013D000062609D407F0FE00411E8941C943C90F02
:1013E00001A8FEF7E4FE064617F01C0F00F0C480CB
:1013F000300000F0B780042E40F0E4807A4908689D
:1014000000281EBF08690028122603D101A8FFF793
:10141000F1FA0646300047F0080745D138074AD5AB
:1014200000F0B4FB099901F80E0F020A130A1D0A15
:101430004A708B70CD70099901F8160F4A708B7045
:10144000CD7020200999C872DDF8248000984146AB
:10145000FFF7B4FA054600980021002288F81A1018
:1014600088F81B200078032804BF88F8141088F837
:101470001510099800F81C1F42708170C17001207E
:101480000099C8709DB10098D0F83080294601A815
:10149000FFF7FEF8060007D100984146FEF749FF26
:1014A000064600986D1E0561300040F08B803807BD
:1014B00048BF47F040070098016B616207F0FE01EA
:1014C0000998A062491E8941C943C90F01A8FEF7C6
:1014D000A0FE0028206143D0099D00982946FFF70F
:1014E0006DFAA06005F11C00FEF756FEE0600020DA
:1014F000E062009921600098C188A1800020607599
:101500002062A06127754FF4805104F1300000F093
:10151000CFFAB80658D5E568002D55D0A5610098DA
:1015200047898089A1684743AF420DD22046FEF724
:1015300085FF014602292DD311F1010F2DD0ED1B9E
:101540003000F1D0E1613DE0E16100988089B5FBB8
:10155000F0F200FB1250B8B30098FEF762FF08BB30
:1015600002262FE09DF80A0010F0110F10D1780725
:101570007FF554AF082625E0300095D19DF80A008C
:10158000C10648BF04261DD4B90790D5C0078ED523
:10159000072617E00226E16114E04FF0FF30012634
:1015A000E0610FE0009A9189B5FBF1F10818206223
:1015B000024600984078012304F1300100F055FA0A
:1015C00010B101260020206030460EB0BDE8F08149
:1015D000DC7800084641540046415433683100200D
:1015E0005252614172724161283100202DE9F04F61
:1015F00006469A4681B000208846CAF80000002EB0
:101600001CBF31680029144616D00878A0B1C888DC
:10161000B288904210D1487800F00AFAC0070BD483
:10162000707D3568010040F0D280307D810707D49D
:10163000072001B0BDE8F08F092001B0BDE8F08FB0
:10164000B0692118814280F0A6804FF0FF32141A51
:10165000A1E0F06A18B13046FFF73AF903E0F1690A
:101660003046FFF7E0F8002800F0AC80012800F0D9
:10167000B18010F1010F00F0B280B168F06101B9E2
:10168000B060307D01060DD5326A6878012306F11D
:10169000300100F0F5F9002840F0A180307D00F025
:1016A0007F003075F769A869BF1E801E874280F0F1
:1016B00091806889E96A00FB0717002F00F08A8093
:1016C000A989B4FBF1F9B9F1000F5F4426D009EB09
:1016D0000B01884238BFA0EB0B0968784B463A46AD
:1016E000414600F0CDF9002879D1306AC71B4F453B
:1016F00010D2A889474306F1300108EB070228B150
:1017000012F8013B01F8013B401EF9D1307D00F099
:101710007F003075A98901FB09F12DE0306AB842DC
:101720000CD0B169F068814208D2687801233A464A
:1017300006F1300100F099F9002850D13762B26902
:10174000AB89B2FBF3F909FB03F7981A3844214639
:10175000844206F1300388BF0146D21B1A44084672
:10176000434628B113F8017B02F8017B401EF9D1F2
:10177000307D40F0800030758844B069F268081808
:10178000B061904238BF1046F060641ADAF8000089
:101790000818CAF80000ACB1B169A889B1FBF0FB28
:1017A00000FB1B100028CAD16889401E10EA0B0BF1
:1017B0007FF467AF00297FF44CAFB06800287FF456
:1017C00052AF4DE7307D40F040003075002001B051
:1017D000BDE8F08F0220707501B0BDE8F08F0120E8
:1017E000707501B0BDE8F08FF0B581B004001CBF8A
:1017F000216800291CD00878D0B1C888A2889042FE
:1018000016D1487800F014F9C00711D4217D25685D
:1018100000204A0641D5080611D5226A68780123BE
:1018200004F1300100F02CF928B1012001B0F0BD25
:10183000092001B0F0BD207D00F07F00207500F090
:10184000A5F90646616A2846FEF773FD010024D11A
:10185000A76AF87A40F02000F8723946A26820683A
:10186000FFF7BBF8E0683877BE75000A7877360A6C
:10187000000AB877FE75000AF877360A3E7600202F
:10188000B874F874360A7E760120E8702846FEF7B0
:101890006AFD217D01F0BF01217501B0F0BD10B5D9
:1018A0000446FFF7A1FF010018D1002C1CBF2168DE
:1018B00000290AD0087840B1C888A288904204D193
:1018C000487800F0B5F8C00701D5092010BD20699F
:1018D000FEF7DBFC010004BF0021216010BD000009
:1018E00070B50D4682B004460A2D04BF0D21FFF7E6
:1018F000F7FF6668002E16D404F10C008555761C9F
:101900003D2E0CDB20686B46324604F10C01FFF7DC
:101910006DFE0098B0420CBF00264FF0FF36A06865
:101920006660401CA06002B070BD10B5044682B075
:101930006268002A0CD420686B4604F10C01FFF7A2
:1019400055FE002801BF606800998842A06801D058
:101950004FF0FF3002B010BDF0B595B005460191D3
:101960004FF0FF360021029103912C78F4B10A2C3C
:1019700003D10D2101A8FFF7B3FF029F002F13D45D
:1019800004A8C4557F1C3D2F0ADB01986B463A46DC
:1019900004A9FFF72BFE0098B84214BF3746002772
:1019A00003980297401C03906D1CDEE701A8FFF727
:1019B000BCFF15B0F0BDF0B402461068956813186E
:1019C000506803EB5004C0071DD54D441BE013F8CD
:1019D000017B05F8017B491EF9D1A0B1B60813F8C7
:1019E000011B06F00306032E08BF13F8016B01EB81
:1019F00006214942801C294405D011F8016B05F8E5
:101A0000016B401EF9D1A3420ED013F8016B16F002
:101A1000030104BF13F8011BC91C30090F28DAD1D8
:101A200013F8010B0F30D6E7F0BC02F10C00704741
:101A300001461E4A531802EB81014A68187A516820
:101A400008471A4B02460020995C002900D07047D5
:101A500010B481B001249C5403EB82019C184A68A5
:101A6000207A136801B010BC184770B504460F4DBA
:101A70002E1905EB84046568307AAC68A04770BD08
:101A800070B50446094D2E1905EB84046568307A5B
:101A9000EC68A04770BD30B40346044CE51804EB75
:101AA00083035C68287A236930BC184748310020DA
:101AB000002200F021B830B4002513E050F8042BC8
:101AC000D30744BFA9F101039A18091F042942F85A
:101AD000045BFAD213468C0744BF15809B1CC907D0
:101AE00048BF1D7050F8041B0029E7D130BC704777
:101AF00062F30F2262F31F42401810F0030308D074
:101B0000C91A1FD3DB0748BF00F8012D28BF20F8F2
:101B1000022D130030B414461546103928BF20E9B1
:101B20003C00FAD8490728BF20E90C0048BF40F81C
:101B3000042D890028BF20F8022D48BF00F8012D90
:101B400030BC7047C91818BF00F8012DCB0728BF5B
:101B500000F8012D7047B1F5807F02D34FF0FF30C0
:101B600070470170012070470078401E8041C043DB
:101B7000C00F704710B5034C0348211D00F008F852
:101B8000207010BD603100205C2C002000207047C8
:101B900030B40E4C627A03460120AAB9627A002062
:101BA000A0540022607A04EB80056B60607A2044C8
:101BB0000272607A421C6272303008702F223A2022
:101BC00048708A700020C87030BC704748310020CF
:101BD0002DE9F04F0FF2A41CA1B0DCE90089CDE99A
:101BE00000892A9DDFF8DC9B049100248DF8435086
:101BF0000D944FF0FF38824616461F460FE0B3465D
:101C00002C461BF8011B0498D0470028049000F0D4
:101C1000A2800D98401C641E0D90F2D17619307888
:101C2000252808D1002100220791089209910A92E3
:101C30000B910C920DE06A464146304600F0AAFF37
:101C4000050001D10D98A1E0D9D50125E6E741F0C5
:101C5000010116F8010F2028F9D023280CD02B28D9
:101C600004D02D2805D0302809D076E041F00201BB
:101C7000EFE741F00401ECE741F00801E9E741F04A
:101C80001001E6E70F9209E00F98484505DA00EBEE
:101C9000800402EB4402303A0F92761C3278A2F1B3
:101CA00030000A28F0D330782E2818BFCDF83880BD
:101CB00022D116F8010F2A2807D138683860761C1F
:101CC00050F8042B38600E9216E02D280CBF761CBD
:101CD000002000220E920AE040B90E9A4A4505DA29
:101CE00002EB820403EB4403303B0E93761C337803
:101CF000A3F130020A2AEFD3ADF8401021A03178C9
:101D000000F052FF08B116F8010B8DF842009DF863
:101D10004200682804D1307868280AD1622105E0A1
:101D20006C2804BF30786C2803D171218DF84210E3
:101D3000761C12A806903A4616F8013B02A95046B6
:101D400000F064F838B912AA02A9504600F0C8F9A8
:101D500000287FF564AF404618E02A2892D13A68FF
:101D60003A6052F8040B3A6000280F9003D54042C5
:101D70000F9041F00401761C95E700000000000080
:101D800000000000686A6C747A4C000021B0BDE865
:101D9000F08F622820D0682811D06A2803D06C28E0
:101DA00027D0712825D10868C01D20F007000860E1
:101DB000D0E9002308300860194610467047002A11
:101DC0000A680A60106803D0121D0A6000B217E0AA
:101DD000121D0A6080B217E0002A0A680A601068C3
:101DE00003D0121D0A6040B20AE0121D0A60C0B2A0
:101DF0000AE0002A0A680A60106803D0121D0A600F
:101E0000C1177047121D0A60002170477CB50D464E
:101E100011461C462E69B4F1250200F04F811C3A90
:101E200000F08480121F022A40F280800E3A00F0F7
:101E30000981521F59D0093A78D0921E16D0521EED
:101E400035D0521E022A71D9121F30D0521F00F015
:101E50009880521E49D0521E00F0E280D21E00F03F
:101E6000FF80921E41D0D21E3FD02DE195F83A401E
:101E70006C2C09D06869421C6A610A680A6052F8D1
:101E8000043B0A60335429E10A680A6052F8043BB3
:101E90000A600093002201924FF0FF332B636A46E1
:101EA000294600F098F9002840F1188103E195F8DF
:101EB0003A000122FFF76DFFC5E90001002904D5B2
:101EC0006869411C69612D220DE0288F810704D5C6
:101ED0006869411C69612B2205E0C00721D568694A
:101EE000411C6961202232541BE095F83A0000221F
:101EF000FFF74FFFC5E9000195F83800010710D53D
:101F0000D5E90023002B08BF002A0AD044F02000A6
:101F1000782806D1686930213154401C421C6A611E
:101F20003454214668693044E86087E00868C01D81
:101F300020F007000860D0E9002308300860C5E9F8
:101F40000023D5E90001C80F04D06869411C69610C
:101F50002D220DE0288F810704D56869411C696135
:101F60002B2205E0C00704D56869411C6961202265
:101F7000325468693044E8602146284600F036FA59
:101F8000ACE005F13A02507820B14FF0FF340FF683
:101F9000043074E01078622808D0682824D06A28B9
:101FA00012D06C282ED071280ED02BE00A680A605F
:101FB00052F8040B0A6020B94FF0FF340FF6EC2002
:101FC0005DE0E96A017089E00A680A6052F8040B72
:101FD0000A6020B94FF0FF340FF6D0204FE0EA6AD4
:101FE000D317C0E9002379E00A680A6052F8040BAD
:101FF0000A6020B94FF0FF340FF6B0203FE0E96AE5
:1020000001806BE00A680A6052F8040B0A6020B98C
:102010004FF0FF340FF6942031E0E96A01605DE093
:102020000A680A6052F8040B0A60002120F00002DE
:1020300021F0FF33C5E90023EE607821284600F047
:102040002DF94BE06C2285F83A200B680B6053F8B1
:10205000042B0B6052BB4FF0FF340FF684200EE0D0
:1020600095F83A206C2AF0D00868086050F8044BC4
:102070000860EC603CB94FF0FF340FF6482000F0E8
:10208000A3FD201A76BD2E6B002E04D5204600F04D
:10209000BBFD044608E032460021204600F0D0FD9A
:1020A000002814BF041B3446AC6117E0294600F039
:1020B00092F8002812D54FF0FF3076BD6869411CB8
:1020C00069612522325409E06969481C686125224A
:1020D0007254210002D0431C6B613454002076BD41
:1020E0002DE9F0410E4605469046726B7069316AE3
:1020F000B46A121AB069521A716A121AF069521A45
:10210000121A96F83800141B41070DD4002C0BDD71
:102110002746B0682021A8470028B06057D0F06A51
:10212000401C7F1EF062F4D1736942463146284656
:1021300000F098FC00284AD1376A002F0ADDB06809
:102140003021A8470028B06041D0F06A401C7F1EB3
:10215000F062F4D1B369F2683146284600F082FC9F
:10216000A8BB776A002F09DDB0683021A847B060AE
:1021700068B3F06A401C7F1EF062F5D1F068B16967
:10218000F36942183146284600F06CFCF8B9B76A8A
:10219000002F09DDB0683021A847B060B8B1F06AFF
:1021A000401C7F1EF062F5D196F8380041070BD530
:1021B000002C09DDB0682021A847B06038B1F06A72
:1021C000401C641EF062F5D10020BDE8F0814FF0A4
:1021D000FF30BDE8F0812DE9F8470D46A3B02F6B25
:1021E000002F0646904648BF6FF000470FF60C14CC
:1021F00000F052FDD4E90023696B4018CDE90123BA
:10220000812828BF4FF0FF3042D20024002F33DD59
:10221000D8F8001001AA684600F0BEFC8146B9F16A
:10222000000F38D4D8F8000010B9B9F1010932D440
:102230004F4521DB6869484481280AD3002169633E
:1022400003AA29463046FFF74BFF040014D40020B0
:10225000686103ABD5F814A04A46694603EB0A004F
:1022600000F020FDCA44C5F814A058F8040B00285B
:1022700018BFA7EB0907C9D14CB903AA29463046B4
:10228000FFF72EFF044614B90020686168632046FA
:1022900024B0BDE8F0874FF0FF34F8E72DE9FC43A8
:1022A00007466F293E6908BF082405D041F0200089
:1022B000782814BF0A2410243C25D7E90023642978
:1022C00018BF69299046994605D1002B03D5D8F14E
:1022D000000869EB4909B9F1000F08BFB8F1000F18
:1022E0001FD1386BE8B9082C4CD197F8380001079A
:1022F00048D530203B2586F83B0043E000280ED52A
:1023000097F8380000F01400102808D17B6B796929
:10231000386A5B1A1B1A9A1A002AC8BF3A62BDE8CB
:10232000F3838DF80010404649462246E31700F03B
:102330000DFD3032D0B26D1E3A28019504DB9DF8B8
:102340000000A0F151018A187255404649462246C4
:10235000E31700F0FBFC80465FEA010908BFB8F113
:10236000000F03D0F86871198842DCD3082C09D11A
:1023700097F83800010705D5705D302802D06D1E32
:1023800030207055C5F13C02BA617119F960386BA3
:102390008242B3DA821A3A624FF6EF70398F014007
:1023A0003987BDE8F3832DE9D04306460F4614462E
:1023B0004FF00008DFF8109412E0E00707D542461E
:1023C0004B463046394600F0D9FD06460F4640469A
:1023D000494642464B4600F0D1FD6410804689468E
:1023E000002CEAD130463946BDE8D0832DE9F84FBC
:1023F00005468A464AF020048EB0D5E90089612C52
:1024000002AE09D0286B002848BF062003D408BFBD
:10241000672C01D101202863D5E900014A0052153B
:10242000521C0DD10B030BD0AAF1610103201A2914
:10243000A86102D20FF2CC6110E00FF2CC610DE086
:102440004A005215521C0ED10B030CD1AAF16101A6
:1024500003201A29A86116D30FF2B461E868032299
:1024600000F020FCC0E1CDE90C01DDE90C2323F0F4
:102470000043B3F5801F0DD20027002B08BF002AB0
:10248000019703D111E00FF28461E7E701AA00F0A0
:1024900047FE0AE0CD48CE4900EB1350DDE90C239E
:1024A00001900B40CB4910461943C5E90001612C4E
:1024B0000DD1E86830210170821CBAF1610FEA6029
:1024C0000CBF7821582141706869801C6861D5E98A
:1024D0000001CDE90C01DDE90C2333F0004104BF1C
:1024E0000028002300F04881612C40F0A080286B78
:1024F000494600284CBF4FF0210B00F1010B40462C
:1025000000220023DDE90C8900F042FE01990BF165
:10251000010738BF89F00049091F002F01918DF88C
:1025200008200DF1090040F33581A94900910646C4
:10253000404649460022002300F042FE80F02981F7
:102540004800400D00F11C0211D0002A0FDD40F2BE
:10255000FF739A4205DBA04909F0004001430020C7
:1025600011E0009B194041EA025140460BE028F07F
:10257000000039F0004108BF00280FBF49461C2267
:10258000494600F035FE8046894600F0CFFEFF1F29
:10259000002F044609DD00F0E7FE02460B464046E8
:1025A000494600F0F3FE80468946F01D072104E00D
:1025B00004F00F0200F8012D2411002C01DD491E4A
:1025C000F6D5491E5CBF002200F8012DF9D5DCE0EC
:1025D0000020194602AA0A4400E05B1E12F80149D5
:1025E000491E8442F9D00F2804D10DF10900425C44
:1025F000521C4254002904D50198001D02AE5B1CF8
:102600000190581E0CD43118AAF13A040A783032DD
:10261000D7B23A2FA8BFA218401E01F80129F5D55C
:10262000286B002840F1A780591E2963A3E0019977
:102630006A4A47F29750414391FBF2F2019229F026
:102640000046D2F1070204DD40463146FFF7ABFEFB
:102650000AE0524200206249FFF7A5FE02460B46FF
:102660004046314600F004FF8046662C286B06BFCA
:10267000019F0A3706273F18142FC8BF14273020A0
:102680008DF8080089460DF1090000E03046002F62
:1026900034DD06464046494601F00EF801460A463A
:1026A00006F1080304200A26B2FBF6F606EB860EB6
:1026B000A2EB4E02303203F8012C0A22B6FBF2F2F2
:1026C00002EB820EA6EB4E063036401E03F8026D7A
:1026D000E9D1083F002F03F10806D7DD084600F0D6
:1026E000FFFF02460B464046494600F04FFE0022DF
:1026F0003C4B00F043FC80468946CBE70DF10901D5
:10270000401A0DF1090604E00199491E401E01918D
:10271000761C31783029F7D0662C02D10199491CFA
:1027200003E0652C0CBF012100212B6BCB189842D4
:10273000B8BF431E002B1ED4834204DAF05C352858
:10274000A8BF392000DA30201946721E02EB0108BA
:1027500000E05B1E18F80199491E8145F9D039281F
:1027600002D1705C401C7054002904D50198401CB3
:1027700016465B1C0190019800B200901BB23246D5
:102780005146284600F034F82EE0C61D002F3FF7D2
:10279000CFAE30460DF10901401A03465845C8BF77
:1027A0005B46002B0DF109063FF53AAF8342BFF6B9
:1027B0000FAF0DF10900C15C07297FF709AF0F20AA
:1027C00007E70000CBCCCC0C0000244002FCFFFF4C
:1027D000FFFF0F800000E03F0000F07FA0860100B7
:1027E0000000F03F84D797410FB0BDE8F08F0000A4
:1027F0002DE9F84783B006468A461746984600F00A
:10280000CDF9B8F1000F406A356B90F8009002DC0A
:102810004FF00108BFA74AF02000BDF930406628FC
:1028200008BF641C15D0672840F0848014F1040FA1
:10283000C0F28680AC4280F2838096F83800641C37
:10284000010702D4A845B8BF454620B22D1A48BF9B
:1028500000250FFA84FAF068B169BAF1000F25DC9F
:102860004A1C30234354002D03DC96F8380001073E
:1028700003D5F06800F80290521C15EB0A0FB8BFA0
:102880006C4220B2441941424445B8BFA046B261EF
:1028900071620FFA88F5F561F068B3692A46394626
:1028A000184400F0FFF9641BB462C4E022B2904502
:1028B000084417DA4246394600F0F4F9B06940445A
:1028C000B061AAEB0801002D716203DC96F83810A4
:1028D0000A0705D5F16801F80090F069401CF06125
:1028E000B562A8E0394600F0DDF9B069002D50442A
:1028F000A8EB040803DC96F838100A0703D5F16842
:1029000001F80090401CB0610FFA88F08542F3682E
:10291000B069B8BFA8460FFA88F207EB0A0118445D
:1029200000F0C0F9B1690FFA88F00144B161281ACA
:10293000706280E0BAF1610F14D14FF0700A16E0B6
:10294000A84504DA96F838100A0758BF45466D1EA8
:1029500048BF0025BAF1670F14BF4FF0450A4FF08A
:10296000650A04E0BAF1410F08BF4FF0500AB1699F
:10297000F368481CB061002D17F8012B5A5403DC92
:1029800096F838100A071BD5F168431CB36101F8AB
:102990000090002D14DDA8F101080FFA88F03946E7
:1029A0008542F768B8BFA8460FFA88F2F81800F019
:1029B00079F9B0690FFA88F108446D1AB06175624F
:1029C000F068B1690844002C80F800A003D42B22E1
:1029D0004270811C03E02D2141706442811C002063
:1029E0006A460AE023460A2493FBF4F404EB8405C8
:1029F000A3EB450302F8013B401C24B2002CF1DCA0
:102A0000012806DC4AF02002652A04BF302201F8C2
:102A1000012B48B9302001F8010B07E0401E1DF8DA
:102A20000030303301F8013B0028F7DCF268B06970
:102A30001044091AF16196F8380000F014001028CB
:102A40000DD17269B169706A8A18F1698218B06A29
:102A50008A188218706B8242BCBF821A326204B03C
:102A6000BDE8F087F8B505460E4617461C4600201F
:102A700074B117F8011BB068A847B06030B1F06AB4
:102A8000401CF0620020641EF3D1F2BD4FF0FF3015
:102A9000F2BD00007072696E74665F733A20256E35
:102AA00020646973616C6C6F776564007072696E25
:102AB00074663A2062616420256E20617267756DCC
:102AC000656E74007072696E74665F733A2062613D
:102AD0006420257320617267756D656E7400000057
:102AE0007072696E74665F733A2062616420256C4F
:102AF0007320617267756D656E74000000000000E0
:102B0000000000006E616E004E414E00696E66006E
:102B1000494E460030008268521C8260426832B1E1
:102B20000268531C036011704168491E4160704780
:102B30001B48704770B45368D418042B09DA41B1AC
:102B4000057804F8015B10F8016B16B15B1C491E97
:102B5000F3E7536070BC704738B514461D4661B149
:102B6000FFF7E8FF61686A6B204690476FF001024B
:102B7000811A02D0491E01D001E003E005E00021E6
:102B8000616032BD6FF0010032BD4FF0FF3032BDE9
:102B9000DA6B1047024BDFE7014BF9E7014870475A
:102BA000A82C0020702C0020C9B202788A421AB1E9
:102BB0001CBF10F8012FF9E718BF0020704702680A
:102BC000531C03601170704780B500B906A0054919
:102BD0000B681BB122220021984701E000F08DFD17
:102BE000222002BD74310020636F6E7374726169BC
:102BF0006E742068616E646C65723A206261642054
:102C00006D6573736167650000F10103810704D08E
:102C100010F8011B820781B1FAD10268A2F10131DB
:102C2000914311F0803104BF50F8042FF6E709BA40
:102C3000B1FA81F100EBD100401CC01A70470000CE
:102C4000C9B2830706D0521E22D310F8013B994225
:102C5000F7D11FE0083A13D302F1040241EA01213F
:102C600041EA014150F8043B121F21BF4B40A3F140
:102C7000013C2CEA030C1CF0803FF3D0C9B2001FCA
:102C8000083210F8013B521E28BF91EA030FF8D812
:102C900018BF0120401E704780B5FFF749FF006C48
:102CA00002BD000062B38B0708D0521E11F8013B31
:102CB00000F8013B00F024808B07F6D1830740F039
:102CC000208000BF103A07D330B4B1E83810103A72
:102CD000A0E83810F9D230BC530724BFB1E808107F
:102CE000A0E8081044BF51F8043B40F8043BD20769
:102CF00024BF31F8022B20F8022B44BF0B7803705D
:102D00007047121F17D35B0009D151F8043B20F81C
:102D1000023B1B0C121F20F8023BF6D20BE051F8CD
:102D2000043B00F8013B1B0A20F8023B1B0C121F5E
:102D300000F8013BF3D238BF121D521E24BF11F818
:102D4000013B00F8013BF8D870470000BBBBE1B184
:102D5000B2F5803F80F07E80022A1ED98C46B1FBFE
:102D6000F2F102FB11C31B0443EA1043B3FBF2FC74
:102D700002FB1C3380B240EA0343B3FBF2F002FBD8
:102D8000103240EA0C4000237047022A05D98446DD
:102D9000B0FBF2F002FB10C270474AB105D100F05F
:102DA000010249085FEA30007047002200237047A3
:102DB00000F0A6BC0B0002000021002070479042EA
:102DC00071EB030CF6D3B3F5803F2FD2F0B5B3FA15
:102DD00083F7B1FA81F4A7F10F0E3D1B5340CEF1FA
:102DE000200602FA0EF2F3415340B5F10F0746D820
:102DF0000F3C2C444140C4F12006A040F141414029
:102E0000B1FBF3F603FB1611A2FB0645001BA9411B
:102E100002D2761E8018594180EA010221FA0EF38F
:102E200062FA0EF200215A403046F0BD30B4B1FBD8
:102E3000F3FC03FB1C11A2FB0C45001BA94103D2B0
:102E4000ACF1010C8018594130BC02460B4660467B
:102E500000217047B2F1807F65D3F0B5B2FA82F7F6
:102E6000B1FA81F4C7F10F063D1B22FA06F307F110
:102E7000110EF24120355A40B5F10F07B8D9414043
:102E8000C4F12006A040F1414140B1FBF3FC03FB3B
:102E90001C11A2FB0C45001BA94103D2BCF1010C83
:102EA000801859410F2F12D30F3FC90341EA5041F7
:102EB000B1FBF3F603FB1611A2FB0645D4EBC030C1
:102EC000A94102D2761E8018594146EACC3C07B38C
:102ED0004140C7F12006B840F1414140B1FBF3F653
:102EE00003FB1611A2FB0645001BA94102D2761E68
:102EF0008018594180EA010221FA0EF3C7F120043B
:102F000062FA0EF20CFA07F05A402CFA04F1304340
:102F1000F0BD80EA010221FA0EF3002162FA0EF2FE
:102F200060465A40F0BD8C46B1FBF2F102FB11C382
:102F30001B0243EA1063B3FBF2FC02FB1C331B02CF
:102F40004CEA002043EA1063B3FBF2FC02FB1C33A3
:102F50001B024CEA002043EA1063B3FBF2FC02FBC5
:102F60001C331B024CEA002043EA1063B3FBF2FC63
:102F700002FB1C324CEA002000237047B0B581EA06
:102F8000030C0CF0004C40F2FF7515EA11541DBF04
:102F900015EA1357AC42AF4239E0E41923EA45532E
:102FA00043F48013C90241F0004141EA505EC70278
:102FB0001100A7FB020200284FF00000EEFB0120E9
:102FC0004FF00001E3FB072118BF42F00102401857
:102FD00000214941E3FB0E01A4F580640F0302D2F6
:102FE00052004041494154F101046CDD470872F13F
:102FF000004250F1000051EB0451A1F580115CBF7B
:1030000041EA0C01B0BD4CEA05510020B0BD05EA13
:103010001357AC4214BFAF4241E050EA410E1CBF0F
:1030200052EA430E02E061460020B0BD24423C4417
:103030001BD15FEA070EF6D0090302BF014600204C
:10304000AEF1140EB1FA81F7AEEB070401FA07FEF8
:103050000C37C7F1200100FA07F7C8404EEA000E0E
:1030600023EA455343F48013A2E733F00043B3FA55
:1030700083F704BFB2FA82FE77440B3FE41BB7F13B
:10308000200E2FBF02FA0EF3BB40C7F1200E22FA2A
:103090000EFE38BF43EA0E03BA40641C82E750EAD2
:1030A000410E14BF52EA430E6FF000014FF40017B7
:1030B00017EB430F8ABF194617EB410FB5E74CEAF0
:1030C00005510020B0BDD4F10104B4F120070FDA9E
:1030D000C4F12007520828BF42F0010210FA07F598
:1030E00001FA07F7E1BF2A43E0403843E1400FE02F
:1030F000352C98DCC7F1200452EA400220FA07F28E
:1031000018BF42F0010231FA07F0A1400A43002142
:1031100072F1004250F1000051EB0C01B0BD000013
:1031200010B5144600F002F8226010BDC1F30A5336
:1031300043B14A0012F5001F28D2A3F2FE32A1EBE0
:103140000251704750EA410C20D001F0004C31EAA6
:103150000C01B1FA81F204BFB0FA80F3D2180B3A35
:10316000B2F120032CBF00FA03F1914041EA0C01B7
:103170003EBFC2F1200C20FA0CF31943904052429A
:1031800040F2FD33D21A01EB035170470022704721
:103190004FF4001C1CEB410F94BF1CEB430F09E0E4
:1031A00041EA030C50EA4C0C52EA0C0C03D299424F
:1031B00008BF9042704714BF8B42824270470000A4
:1031C0004FF4001C1CEB410F94BF1CEB430F09E0B4
:1031D00041EA030C50EA4C0C52EA0C0C03D28B422D
:1031E00008BF8242704714BF994290427047000066
:1031F000124254D440F2FF7C1CEA11530FD06345B5
:1032000031D09B1863453CBF01EB0251704701F080
:10321000004141EA0C510020AFF30080704750EAB2
:10322000410320D001F0004C91EA0C011CD0B1FA0E
:1032300081F30B3B9A420DD9D21A994051EA0C0105
:10324000C3F1200C20FA0CFC61449840531C40F25E
:10325000FF7CD7E7914041EA0C01C2F1200C20FA33
:103260000CF3194390407047B0FA80F31533202BCC
:10327000E0D3202AEED3203A203B9A4209D9D21A31
:1032800000FA03F141EA0C010020531C40F2FF7CDC
:10329000B8E700FA02F141EA0C01002070475242FF
:1032A00040F2FF7C1CEA11530DD06345DBD0B2EB3A
:1032B000030C3CBFA1EB025170470CF1010221EA63
:1032C000035141F4801150EA410CCCD001F0004C84
:1032D000352A27DC30B481EA0C01B2F1200309DA87
:1032E000C2F12003044601FA03F5D0402843D1403F
:1032F0009C400CE0C3F12002450020FA03F418BF03
:1033000044F0010421FA03F091400C43002174F1D0
:10331000004550F1000051EB0C01244230BC7FF419
:103320007BAF70476146002076E70000C1F30A5387
:1033300040F2FE329B1A14DDD3F120034FEAE17212
:1033400008DDC90241EA505141F00040D8408018E0
:103350005040704703F2E13010B1D24382F0004098
:103360007047002070470000C11768B14840401AFC
:10337000B0FA80F29040D21CC907C2F5846241EADB
:10338000025202EBD02140057047000070B44FF0AC
:10339000004591EA030F40F1B5816B40841A71EB4F
:1033A000030603D2001BB141121973414FF4001CF4
:1033B0001CEB410F34BF7CEB430442E00C0DA4EB4B
:1033C0001356352E4FDC45EAC323DB0A45EAC121FB
:1033D000C912B6F120050DDD63FA05F6EB4086EA69
:1033E0000305124218BF45F00105C01851F1000154
:1033F0000CD213E062FA06F5F2405540F3415A4010
:10340000B340F3405A408018594107D349085FEA56
:1034100030005FEA350528BF45F0010501F5801150
:10342000420875F1004250F1000041EB04514E009A
:1034300016F5001F70BC38BF70470020090D090544
:1034400070471CEB410F10D252EA43060BD0BCEB85
:10345000410F05D80C0DAB43661E342EB6DD02E0DD
:10346000AB438018594170BC704770BC7047000076
:10347000F0B540F2FF7581EA030C0CF0004C15EA40
:1034800011541DBF15EA1357AC42AF42E5E0BC41F1
:10349000C1F31301C3F31303801A994143F480135A
:1034A00004D2641E4000494180185941C90241EAD2
:1034B0005051B1FBF3F603FB1611A2FB0675D7EBD7
:1034C000C020A94102D2761E80185941C90241EAA2
:1034D0005051B1FBF3FE03FB1E11A2FB0E75D7EB9F
:1034E000C020A94103D2AEF1010E801859418902D2
:1034F00041EA9051760546EA8E2EB1FBF3F603FBC6
:103500001611A2FB0675D7EB8020A94102D2761EC8
:1035100080185941C90241EA50514EEA060EB1FBEA
:10352000F3F603FB1611A2FB0675D7EBC020A941E9
:1035300002D2761E80185941C90241EA5051B1FBAE
:10354000F3F703FB1711A2FB0735D3EBC020A9410A
:1035500067F100070CBF004247F0010766F3D5276B
:103560004FEA1E31B80814F5806412DDBD0775F10D
:10357000004250EB0E5051EB045111F5801F5CBF1F
:1035800041EA0C01F0BD4CF07F6141F0E0410020C8
:10359000F0BDBD076D0840EA0E5041F48011D4F132
:1035A0000104B4F120060ADAC4F120060200E0406A
:1035B00001FA06F3E1401843B24015430EE0342C03
:1035C00013DCC6F1200445EA40056D0820FA06F236
:1035D000154321FA06F0A1400D43002175F1004288
:1035E00050F1000051EB0C01F0BD00205FEA0C012E
:1035F000F0BDCFB992185B41B3FA83F704BFB2FABA
:1036000082F6BF190B3FB7F120062FBF02FA06F36F
:10361000BB40C7F1200622FA06F638BF3343BA4052
:103620001CB1E419641E33E77F4231F00041B1FA66
:1036300081F404BFB0FA80F6A4190B3CB4F1200663
:103640002FBF00FA06F1A140C4F1200620FA06F6C9
:1036500038BF3143A0403C1B1AE7AC421ABF05EA11
:103660001357AF4212E050EA41061CBF52EA43062C
:10367000BFE750EA4107304661461CBF41EA0551A9
:10368000F0BD52EA430C08BFC143F0BD00204FF427
:10369000001616EB410F98BF16EB430F08BF16EB51
:1036A000410F24BFC14305E016EB430F0CBF614639
:1036B0004CEA0551F0BD0000400D491840EA812058
:1036C0000CD2490DA1F58061491C40F0004005DB9A
:1036D000D1F11F0154BFC840C01770470020704788
:1036E000014648B1B0FA80F18840C91CC1F5846137
:1036F000090501EBD02140057047012000F0B8B862
:1037000070470000841A71EB030604D26E40001B60
:10371000B141121973414FF4001C1CEB410F34BF2F
:103720007CEB430683E00C0DA4EB1356362E00F31E
:103730007C80012E45EAC32341DC43EA525312BF89
:10374000D20292025B08240545EAC12141EA5051A8
:10375000D2EBC020994125D407D1B0FA80F610FAF7
:1037600006F162D00020203608E0B1FA81F6B140BF
:10377000C6F1200220FA02F21143B0404FEAF4747D
:10378000B4EB465434F001064FEA74040AD8D6F577
:103790000016760D04F00044F04061FA06F2504045
:1037A000F1404840C00A40EA415021F0004128BFA2
:1037B0005FEA500550F1000044EBD12135E0DB0A0F
:1037C00045EAC121C90AB6F120050EDD42EA0242EE
:1037D000120CC5F1200603FA06F6EB4042EA060594
:1037E0006D42984161F100010DE062FA06F5F24088
:1037F000554063FA06FC82EA0C02F3405A406D42DF
:10380000904161EB030111F4801F05D1641E620534
:1038100002D06D004041494121F48011430875F107
:10382000004350F1000041EB045170BC70471CEBA9
:10383000410F15D223F0004352EA43060BD04FEA62
:103840004C0CBCEB410F04D80C0D661E342EB7DDBA
:10385000EBE7801A994150EA410608BF0021E4E7EE
:1038600008BF1CEB430F28BF6FF00001DDE700002D
:1038700080B5AFF30080024A11001820ABBEFBE711
:103880002600020011B581B0DFF8944C204601F00B
:10389000FEF80128FAD14FF47A73012201A92046DB
:1038A00000F088FE02B010BD10B582B0FF210022EA
:1038B0008DF805108DF80420DFF8644C204601F0E7
:1038C000E6F80128FAD14FF47A700090012301AA9A
:1038D0000DF10501204600F08FFF9DF8040002B0B5
:1038E00010BD70B5DFF83C4C82B032212170FF254D
:1038F00000228DF805508DF80420DFF8246C304646
:1039000001F0C5F80128FAD14FF47A700090012334
:1039100001AA0DF10501304600F06EFF00218DF87F
:1039200005508DF80410304601F0B1F80128FAD1A5
:103930004FF47A700090012301AA0DF10501304681
:1039400000F05AFF9DF80400FF281CBF21780029D1
:10395000E4D102B070BD00002DE9F043DFF8C88B60
:1039600085B001224021404601F061F941F6FF7423
:103970000A25DFF8AC9BFF278DF80070484601F060
:1039800086F80128FAD14FF47A7301226946484635
:1039900000F010FE6D1EEFD100224021404601F0E4
:1039A00046F940208DF80800002102A895224170B8
:1039B00041808DF80C108DF80D2002AE0625307870
:1039C0008DF80000484601F062F80128FAD14FF462
:1039D0007A7301226946484600F0ECFD761C6D1EA4
:1039E000EDD100218DF805708DF80410484601F0E6
:1039F0004EF80128FAD14FF47A700090012301AA01
:103A00000DF10501484600F0F7FE9DF8040001287D
:103A10001CBF002C641EE4D101224021404601F06D
:103A200006F98DF80070484601F031F80128FAD106
:103A30004FF47A7301226946484600F0BBFDDFF877
:103A4000EC1A0120887005B0BDE8F083F0B505469A
:103A5000DFF8DC6A83B00A200C463070DFF8C07AE9
:103A6000FF2100228DF805108DF80420384601F062
:103A70000EF80128FAD14FF47A700090012301AAC0
:103A80000DF10501384600F0B7FE9DF80400FF284F
:103A900005D130780028E3D1002003B0F0BDFE2826
:103AA0007FF4FAAFFFF700FF2870FFF7FDFE6870A4
:103AB000AD1CA41EF6D1FFF7F7FEFFF7F5FE0120BF
:103AC00003B0F0BDF0B583B006460C46FFF709FF22
:103AD000FF2869D12046FFF7D5FEFD2C5ED04FF4BC
:103AE0008074DFF83C5A30788DF80000284600F0EA
:103AF000CEFF0128FAD14FF47A7301226946284695
:103B000000F058FD70788DF80000284600F0BFFFE7
:103B10000128FAD14FF47A7301226946284600F051
:103B200049FDB61C641EDED1FFF7BEFEFFF7BCFEEA
:103B30004124FF2600218DF805608DF804102846E9
:103B400000F0A5FF0128FAD14FF47A70009001230C
:103B500001AA0DF10501284600F04EFE9DF8047003
:103B600007F01F00052801D0641EE3D100218DF865
:103B700005608DF80410284600F089FF0128FAD16D
:103B80004FF47A700090012301AA0DF10501284637
:103B900000F032FE9DF804000028E7D007F01F0770
:103BA000052F08BF012000D0002003B0F0BD70B584
:103BB00082B004460D46FFF794FEFF2818BFFF2091
:103BC0003ED12046FFF75EFE280EFFF75BFE28027F
:103BD000000EFFF757FE2804000EFFF753FEE8B271
:103BE000FFF750FE0020402C08BF952002D0482C43
:103BF00008BF8720FFF746FE4C2C08BFFFF754FE96
:103C00000A26DFF81C49FF2500218DF805508DF8A4
:103C10000410204600F03BFF0128FAD14FF47A70DF
:103C20000090012301AA0DF10501204600F0E4FDFA
:103C30009DF80400010603D5761EF2B2002AE3D1F6
:103C400002B070BD2DE9F04F83B018B1012003B070
:103C5000BDE8F08FDFF8D4683078810700F141814A
:103C6000FFF77AFEDFF8C08800224021404600F0CE
:103C7000DEFF00214020FFF79AFF0025012840F0D9
:103C80002081DFF8AC78642038704FF4D57148207B
:103C9000FFF78DFF012840F099800DF1040B0424FB
:103CA000DFF87C984FF0FF0A8DF809A08DF80850D6
:103CB000484600F0ECFE0128FAD14FF47A700090EB
:103CC000012302AA0DF10901484600F095FD9DF877
:103CD00008000BF8010B641EE6D19DF806000128D0
:103CE00004BF9DF80700AA2840F0EB80FFF7F9FD1C
:103CF000FF283AD17720FFF7C5FD0020FFF7C2FD6E
:103D00000020FFF7BFFD0020FFF7BCFD0020FFF7FC
:103D1000B9FD0020FFF7B6FD5FF00A04FFF7C4FD10
:103D2000010601D5641EF9D102281EDAFFF7D9FD7C
:103D3000FF281AD16920FFF7A5FD4020FFF7A2FD5B
:103D40000020FFF79FFD0020FFF79CFD0020FFF7FC
:103D500099FD0020FFF796FD5FF00A04FFF7A4FD30
:103D6000010601D5641EF9D110B138780028BDD103
:103D70003978002900F0A58000217A20FFF717FF8D
:103D8000002840F09E8001AD042400218DF809A098
:103D90008DF80810484600F07AFE0128FAD14FF459
:103DA0007A700090012302AA0DF10901484600F043
:103DB00023FD9DF8080005F8010B641EE5D19DF870
:103DC0000400410654BF022506257AE00021772031
:103DD000FFF7EDFE022807DA00216920FFF7E7FE72
:103DE0000228B8BF022524DB0125FFF77AFDFF2852
:103DF0001AD14120FFF746FD0020FFF743FD0020C8
:103E0000FFF740FD0020FFF73DFD0020FFF73AFDE2
:103E10000020FFF737FD0A24FFF746FD010601D514
:103E2000641EF9D1002843D03878002840D0022DF4
:103E3000DBD1FFF756FDFF28F6D17720FFF722FDF3
:103E40000020FFF71FFD0020FFF71CFD0020FFF7FB
:103E500019FD0020FFF716FD0020FFF713FD0A24CF
:103E6000FFF722FD010601D5641EF9D10228DBDA35
:103E7000FFF737FDFF28D7D16920FFF703FD0020AA
:103E8000FFF700FD0020FFF7FDFC0020FFF7FAFC24
:103E90000020FFF7F7FC0020FFF7F4FC5FF00A04B6
:103EA000FFF702FD010601D5641EF9D10028BBD140
:103EB000387828B14FF400715020FFF778FE00B138
:103EC0000025757001224021404600F0B0FEFFF74A
:103ED000EBFC25B1307800F0FE00307001E00021ED
:103EE000B170307803B0BDE8F08F08B101207047A1
:103EF000DFF83806007870472DE9F04F83B0894627
:103F000014461D4600B91DB9042003B0BDE8F08F6A
:103F1000DFF818060178CA0748BF032023D4407889
:103F2000DFF80486410758BF640200224021404662
:103F300000F07DFE012D214618D15120FFF737FEFC
:103F400030B94FF400714846FFF780FD00B10025FD
:103F500001224021404600F06AFEFFF7A5FC681EE2
:103F60008041C043C00F03B0BDE8F08F5220FFF77F
:103F70001EFE0028DFF8B875DFF8A4A54FF0FF0B90
:103F8000E6D10A204FF400744E46387000228DF8B6
:103F900005B08DF80420504600F079FD0128FAD1D3
:103FA0004FF47A700090012301AA0DF105015046EB
:103FB00000F022FC9DF80400FF2838D13878002852
:103FC000E4D1FFF78EFCFF28C2D14C20FFF75AFC4A
:103FD0000020FFF757FC0020FFF754FC0020FFF7FC
:103FE00051FC0020FFF74EFC0020FFF74BFCFFF7D1
:103FF0005BFC0A2400218DF805B08DF804105046B2
:1040000000F045FD0128FAD14FF47A7000900123A9
:1040100001AA0DF10501504600F0EEFB9DF80400E9
:10402000010695D5641EE0B20028E3D190E7FE2892
:104030007FF4C7AFFFF738FC3070FFF735FC7070C6
:10404000B61CA41EF6D1FFF72FFCFFF72DFC6D1E4A
:1040500009F5007995D1B4E72DE9F04782B08A4699
:10406000174608B91D0003D1042002B0BDE8F0874F
:10407000DFF8B8442078C10748BF032000F1E8808A
:104080002078410748BF022000F1E2806078DFF825
:104090009894410758BF7F0200224021484600F013
:1040A000C6FD012D0FD139465820FFF780FD0028AD
:1040B00040F0C380FE215046FFF704FD002800F0C9
:1040C000BC800025B9E0607881073AD5FFF709FC8C
:1040D000FF2832D17720FFF7D5FB0020FFF7D2FB76
:1040E0000020FFF7CFFB0020FFF7CCFB0020FFF7FD
:1040F000C9FB0020FFF7C6FB0A26DFF824444FF077
:10410000FF0800218DF805808DF80410204600F08E
:10411000BEFC0128FAD14FF47A700090012301AA65
:104120000DF10501204600F067FB9DF80400010633
:1041300003D5761EF0B20028E3D129465720FFF7B9
:1041400036FD39465920FFF732FD0028DFF8D083CD
:1041500040F07380FFF7C5FBFF28564667D1FC206F
:10416000FFF790FB4FF4807430788DF800004046E4
:1041700000F08DFC0128FAD14FF47A7301226946D0
:10418000404600F017FA70788DF80000404600F0C5
:104190007EFC0128FAD14FF47A7301226946404629
:1041A00000F008FAB61C641EDED1FFF77DFBFFF7B6
:1041B0007BFB4124FF2600218DF805608DF804105B
:1041C000404600F064FC0128FAD14FF47A70009068
:1041D000012301AA0DF10501404600F00DFB9DF8F9
:1041E000047007F01F00052801D0641EE3D10021F0
:1041F0008DF805608DF80410404600F048FC012859
:10420000FAD14FF47A700090012301AA0DF1050153
:10421000404600F0F1FA9DF804000028E7D007F0CE
:104220001F07052F03D16D1E0AF5007A92D1FD21DB
:104230000020FFF747FC00B9012501224021484634
:1042400000F0F5FCFFF730FB681E8041C043C00F53
:1042500002B0BDE8F08700002DE9F043164687B0B4
:104260000F46B04618B1042007B0BDE8F083012422
:10427000052F18D198F8001021B102290DD008D3CC
:10428000042448E1A949887858B100228A700024A2
:1042900041E1FFF761FB00243DE1A448817888F803
:1042A0000110002437E1A1480178CA0748BF032064
:1042B00000F13281DFF8709200224021484600F080
:1042C000B6FC0D2F00F21F81DFE817F07E000E0014
:1042D00079001D011D011D011D011D011D011D0193
:1042E0001D0185008C00CC00FFF7FBFAFF2840F091
:1042F0000B814920FFF7C6FA0020FFF7C3FA002020
:10430000FFF7C0FA0020FFF7BDFA0020FFF7BAFA66
:104310000020FFF7B7FA0A25814F4FF0FF08002170
:104320008DF805808DF80410384600F0B0FB0128A8
:10433000FAD14FF47A700090012301AA0DF1050122
:10434000384600F059FA9DF80400010603D56D1EA9
:10435000EAB2002AE3D1002840F0D680102102A85A
:10436000FFF774FB002800F0CF809DF8083002A80A
:104370009B09017A427A012B07D102EB0120401CF4
:104380000004800930600024BEE0C37984799B007A
:10439000A40203EB91114379807A04F4406403F0A2
:1043A0000F035200611803EBD01302F00602491C00
:1043B000D21889B2D01F814031600024A4E04FF4AC
:1043C0000070308000249FE0FFF78BFAFF2840F058
:1043D0009B80002498E0FFF784FAFF2840F0948047
:1043E000492005E0FFF77DFAFF2840F08D804A2044
:1043F000FFF748FA0020FFF745FA0020FFF742FADE
:104400000020FFF73FFA0020FFF73CFA0020FFF7FB
:1044100039FA0A25424EFF2700218DF805708DF8E4
:104420000410304600F033FB0128FAD14FF47A70C3
:104430000090012301AA0DF10501304600F0DCF9DE
:104440009DF80400010603D56D1EEAB2002AE3D1EF
:10445000002859D110214046FFF7F8FA002853D020
:10446000002451E0FFF73DFAFF284CD17A20FFF7F6
:1044700009FA0020FFF706FA0020FFF703FA0020F0
:10448000FFF700FA0020FFF7FDF90020FFF7FAF927
:104490000A24234EFF2700218DF805708DF80410A3
:1044A000304600F0F4FA0128FAD14FF47A70009007
:1044B000012301AA0DF10501304600F09DF99DF898
:1044C0000400010603D5641EE2B2002AE3D1D0B98C
:1044D000042400218DF805708DF80410304600F09A
:1044E000D6FA0128FAD14FF47A700090012301AA7C
:1044F0000DF10501304600F07FF99DF8040008F841
:10450000010B641EE5D1042401224021484600F03D
:104510008EFBFFF7C9F9204607B0BDE8F083000025
:10452000480000207931002000040240F02C0020D7
:104530007831002010B5040001D1012010BD002108
:10454000A16294F8510020B984F85010204600F080
:104550000BFC022084F851002068016821F0400122
:1045600001606268A168E06823680A432169024328
:1045700060690A43A169024301F40071E0690A43DA
:10458000216A0243A06A0A4302431A60A169606A71
:104590002268090C01F00401014351602068C169DF
:1045A00021F40061C16100206065012184F851108F
:1045B00010BD00002DE9F041054682B095F850008D
:1045C000002701280C4690461E4608BF022000F036
:1045D0000F81012085F8500000F038FC95F851104B
:1045E000012918BF022740F0FC80002C18BFB8F149
:1045F000000F00F0F580032185F851106F652C63E2
:10460000A5F83480A5F83680AF63AF87EF876F6475
:104610002F64AA68B2F5004F04D129680A6842F4F1
:1046200080420A6029680A68530603D40A6842F087
:1046300040020A60EA68B2F5006F6A6828D1002A71
:104640001CBFEA8E012A06D12A6834F8023BD360E7
:10465000EB8E5A1EEA86A0463446064606E000BFA8
:1046600038F8021BC160E88E411EE986E88EB8B3B7
:10467000286881688A07F3D4002C67D014F1010FF1
:10468000F4D000F0E3FB801BA042EFD30327A8E0A7
:10469000002A1CBFEA8E012A06D12A6814F8013BC1
:1046A0001373EB8E5A1EEA86A0463446064605E092
:1046B00018F8011B0173E88E411EE986E88E78B177
:1046C000286881688A07F3D4002C3FD014F1010FC9
:1046D000F4D000F0BBFB801BA042EFD3032780E0A7
:1046E00028688168880733D414F1010FF8D024B109
:1046F00000F0ACFB801BA042F2D32868416821F097
:10470000E00141606868B0F5827F0BD1A868B0F520
:10471000004F18BFB0F5806F04D12868016821F000
:1047200040010160A86AB0F5005F0AD129680A68F3
:104730004DF6FF7002400A602868016841F400519C
:104740000160012085F8510085F85070032748E08A
:1047500029688868020639D514F1010FF8D024B110
:1047600000F074FB801BA042F2D32868416821F05E
:10477000E00141606868B0F5827F0BD1A868B0F5B0
:10478000004F18BFB0F5806F04D12868016821F090
:1047900040010160A86AB0F5005F0AD129680A6883
:1047A0004DF6FF7002400A602868016841F400512C
:1047B0000160012085F8510085F850700127686D6F
:1047C00040F020006865202068650AE0A86828B9E4
:1047D0000097CB68009389680091009A686D00B1DA
:1047E0000127012085F85100002185F85010384636
:1047F00002B0BDE8F08100002DE9F047064682B026
:1048000096F85000012500270128894692461C464B
:1048100008BF022000F0388186F8505000F016FBE7
:1048200096F851100129804609D07068B0F5827F52
:1048300002BFB0680028042901D002271DE1B9F1A8
:10484000000F18BFBAF1000F01D0200001D10127DD
:1048500013E196F85100012804BF052186F8511094
:104860007765C6F838A0F487B487C6F83090F48628
:10487000B4863764776430680268510603D40268EE
:1048800042F040020260F0680A9CB0F5006F706868
:1048900039D100281CBFF08E012806D1306839F8C4
:1048A000021BC160F18E481EF086F08E002804BF06
:1048B000F08F002861D0002D1CBFF08E00280AD098
:1048C000306881688A0706D539F8021BC160002567
:1048D000F08E411EF186F08F50B130688168CA07B2
:1048E00006D5C0682AF8020B0125F18F4A1EF2870F
:1048F00014F1010FD9D000F0A9FAA0EB0800A042F2
:10490000D3D30327B9E000281CBFF08E012806D1BD
:10491000306819F8011B0173F18E481EF086F08E85
:10492000002804BFF08F002827D0002D1CBFF08E78
:1049300000280AD0306881688A0706D519F8011B5B
:1049400001730025F08E411EF186F08F50B1306862
:104950008168CA0706D5C0680AF8010B0125F18FE6
:104960004A1EF28714F1010FD9D000F06FFAA0EBC4
:104970000800A042D3D303277FE03068816888070E
:1049800034D414F1010FF8D02CB100F05FFAA0EB91
:104990000800A042F1D33068416821F0E001416095
:1049A0007068B0F5827F0BD1B068B0F5004F18BFCA
:1049B000B0F5806F04D13068016821F040010160DA
:1049C000B06AB0F5005F0AD131680A684DF6FF7031
:1049D00002400A603068016841F400510160012022
:1049E00086F8510086F85070032746E031688868E1
:1049F00002063AD514F1010FF8D02CB100F026FAD6
:104A0000A0EB0800A042F1D33068416821F0E0013A
:104A100041607068B0F5827F0BD1B068B0F5004F8F
:104A200018BFB0F5806F04D13068016821F04001F3
:104A30000160B06AB0F5005F0AD131680A684DF6CE
:104A4000FF7002400A603068016841F40051016063
:104A5000012086F8510086F850700127706D40F0F3
:104A6000200070652020706507E0B06828B90097C5
:104A7000CB680093896800910098012186F8511055
:104A8000002086F85000384602B0BDE8F08790F864
:104A9000510070472DE9F04F03460C464FF00008D7
:104AA00081B0C146C24664486449654A012505FA99
:104AB00008FC25680CEA050EE64540F0A380656811
:104AC000022D18BF122D12D14FEAD80503EB850530
:104AD0000AF01C062F6A4FF00F0B0BFA06FB27EAB1
:104AE0000B07D4F810B00BFA06F63E432E620325EE
:104AF0001E68277905FA09F5ED4307F003072E40F4
:104B000007FA09F73E431E606668012E18BF022EA1
:104B100003D0112E18BF122E10D19E68E7682E40C8
:104B200007FA09F73E439E605E6826EA0C0766684E
:104B3000C6F3001606FA08F63E435E60DE683540AE
:104B4000A66806FA09F63543DD606568EE0059D5BA
:104B5000002500954FEA980C166846F480461660CA
:104B60000F26156805F480450095009D51F82C70BE
:104B70000AF00C05AE4027EA0606324FBB4208BFDA
:104B8000002713D0304FBB4208BF01270ED02F4F54
:104B9000BB4208BF022709D02D4FBB4208BF0327E5
:104BA00004D02C4FBB420CBF0427072707FA05F59A
:104BB000354341F82C506FEA0E0C056866680CEA24
:104BC0000505F70348BF4EEA0505056045686668B8
:104BD0000CEA0505B70348BF4EEA05054560856840
:104BE00066680CEA0505F70248BF4EEA05058560D0
:104BF000C56866680CEA0505B60248BF4EEA0505B9
:104C0000C0F80C5008F10108B8F10F0F0AF1040ABE
:104C100009F102097FF64AAF01B0BDE8F08F00004C
:104C200000690140481E8041C043C00F704702B96F
:104C30000904816170470000003C014008380140D0
:104C400044380240000002400004024000080240D4
:104C5000000C02400010024081B0002000900022B1
:104C60007248416841F480414160416801F48041EB
:104C7000009100990092036843F08053036000683C
:104C800000F080500090009801B0704730B587B0B8
:104C900001A90022002300241CC10CC10068644D3E
:104CA000A8421DD163480092416941F4807141617D
:104CB000416901F48071009100990092012103681B
:104CC00043F0010303600322006800F0010000903C
:104CD0000098594801910292039401A9FFF7DAFE66
:104CE00007B030BD30B587B001A9002200230024F1
:104CF0001CC10CC10068514DA84233D14D4C504DE0
:104D000000921222206840F002002060216801F029
:104D1000020100914FF480610098019102920121FB
:104D20000391032204210591049201A92846FFF76B
:104D3000B1FE082201921221029101220392032165
:104D400004910922059201A92846FFF7A3FE00203D
:104D50000090216941F480012161206900F4800004
:104D60000090009807B030BD30B587B001A900228F
:104D7000002300241CC10CC10068324DA84221D17F
:104D80002C480092416941F480514161416901F42C
:104D90008051009100990092E021036843F00103E3
:104DA00003600222006800F0010000900098224891
:104DB000019102920521032205910492039401A915
:104DC000FFF768FE07B030BD30B587B001A90022FB
:104DD000002300241CC10CC100681B4DA84223D134
:104DE00014480092416941F010014161416901F0AC
:104DF00010010091009900924FF4C061036843F0E4
:104E0000010303600222006800F001000090009896
:104E10000948019102920121039103220721059182
:104E2000049201A9FFF736FE07B030BD40380240BA
:104E3000002001403038024000000240005800408D
:104E40000004024000300140001001400148406869
:104E5000704700BF4C2C002010B584B0642000F0D7
:104E6000A9FCAE218DF80C104FF0FF30012103AAF0
:104E70000290019100920123DFF82C490022782151
:104E8000204600F021FD20208DF80C004FF0FF316E
:104E9000012203A8029101920090012300227821AF
:104EA000204600F011FD10208DF80C004FF0FF316E
:104EB000012203A80291019200900123002278218F
:104EC000204600F001FDB0208DF80C004FF0FF31BE
:104ED000012203A80291019200900123002278216F
:104EE000204600F0F1FCC8208DF80C004FF0FF3197
:104EF000012203A80291019200900123002278214F
:104F0000204600F0E1FC00208DF80C004FF0FF314E
:104F1000012203A80291019200900123002278212E
:104F2000204600F0D1FC10208DF80C004FF0FF312E
:104F3000012203A80291019200900123002278210E
:104F4000204600F0C1FC40208DF80C004FF0FF31EE
:104F5000012203A8029101920090012300227821EE
:104F6000204600F0B1FC81208DF80C004FF0FF319D
:104F7000012203A8029101920090012300227821CE
:104F8000204600F0A1FCFF204FF0FF3101228DF8F8
:104F90000C000291019203A80090012300227821C5
:104FA000204600F091FCA1208DF80C004FF0FF315D
:104FB000012203A80291019200900123002278218E
:104FC000204600F081FCA6208DF80C004FF0FF3148
:104FD000012203A80291019200900123002278216E
:104FE000204600F071FCA8208DF80C004FF0FF3136
:104FF000012203A80291019200900123002278214E
:10500000204600F061FC3F208DF80C004FF0FF318E
:10501000012203A80291019200900123002278212D
:10502000204600F051FCA4208DF80C004FF0FF3119
:10503000012203A80291019200900123002278210D
:10504000204600F041FCD3208DF80C004FF0FF31DA
:10505000012203A8029101920090012300227821ED
:10506000204600F031FC00208DF80C004FF0FF319D
:10507000012203A8029101920090012300227821CD
:10508000204600F021FCD5208DF80C004FF0FF31B8
:10509000012203A8029101920090012300227821AD
:1050A000204600F011FCF0208DF80C004FF0FF318D
:1050B000012203A80291019200900123002278218D
:1050C000204600F001FCD9204FF0FF318DF80C0094
:1050D0000291012203A8019200900123002278216D
:1050E000204600F0F1FB22208DF80C004FF0FF313C
:1050F000012203A80291019200900123002278214D
:10510000204600F0E1FBDA208DF80C004FF0FF3173
:10511000012203A80291019200900123002278212C
:10512000204600F0D1FB12208DF80C004FF0FF312B
:10513000012203A80291019200900123002278210C
:10514000204600F0C1FBDB208DF80C004FF0FF3152
:10515000012203A8029101920090012300227821EC
:10516000204600F0B1FB20208DF80C004FF0FF31FD
:10517000012203A8029101920090012300227821CC
:10518000204600F0A1FB8D208DF80C004FF0FF3180
:10519000012203A8029101920090012300227821AC
:1051A000204600F091FB14208DF80C004FF0FF31E9
:1051B000012203A80291019200900123002278218C
:1051C000204600F081FBAF208DF80C004FF0FF313E
:1051D000012203A80291019200900123002278216C
:1051E000204600F071FBDFF8C4454FF4806104F104
:1051F000080000F041FD00F022F8002001222060AC
:10520000627104B010BD00005FF00001DFF8A0255E
:105210005FEA000C0CBF4FF0000C4FF0FF0C82F85F
:1052200000C082F801C0091D92F801C082F802C0D6
:1052300082F803C0121DB1F5806FE9D37047F0B555
:1052400089B0B0204FF0FF318DF823000291012684
:10525000DFF85455DFF8544501960DF12307009708
:10526000012300227821284600F02EFB00228DF831
:105270001B204FF0FF300DF11B02029000920196AF
:10528000012300227821284600F01EFB10208DF813
:1052900013004FF0FF310DF11300029100900196C1
:1052A000012300227821284600F00EFB4FF0FF304A
:1052B000802104F108020290019100920123402212
:1052C0007821284600F000FBB1208DF822004FF035
:1052D000FF310DF12200029100900196012300227E
:1052E0007821284600F0F0FA00208DF81A004FF0DF
:1052F000FF310DF11A000291009001960123002266
:105300007821284600F0E0FA10208DF812004FF0C6
:10531000FF310DF11200029100900196012300224D
:105320007821284600F0D0FA4FF0FF30802104F1B8
:1053300088020290019100920123402278212846A0
:1053400000F0C2FAB2208DF821004FF0FF310DF1CC
:105350002100029100900196012300227821284625
:1053600000F0B2FA00208DF819004FF0FF310DF176
:10537000190002910090019601230022782128460D
:1053800000F0A2FA10204FF0FF318DF811000291C9
:1053900001960DF11100009001230022782128468A
:1053A00000F092FA4FF0FF30802104F584720290F1
:1053B00001910092012340227821284600F084FACE
:1053C000B3208DF820004FF0FF3108A80291009023
:1053D0000196012300227821284600F075FA00206A
:1053E0008DF818004FF0FF3106A802910090019649
:1053F000012300227821284600F066FA10208DF85B
:1054000010004FF0FF3104A8029100900196012393
:1054100000227821284600F057FA4FF0FF30802113
:1054200004F5C47202900191009201234022782178
:10543000284600F049FAB4208DF81F004FF0FF31E4
:105440000DF11F00029100900196012300227821A6
:10545000284600F039FA00208DF817004FF0FF3190
:105460000DF117000291009001960123002278218E
:10547000284600F029FA10208DF80F004FF0FF3178
:105480000DF10F0002910090019601230022782176
:10549000284600F019FA4FF0FF30802104F502721F
:1054A000029001910092012340227821284600F0C9
:1054B0000BFAB5208DF81E004FF0FF310DF11E00E4
:1054C000029100900196012300227821284600F0E5
:1054D000FBF900204FF0FF318DF8160002910DF11D
:1054E000160000900196012300227821284600F042
:1054F000EBF910208DF80E004FF0FF310DF10E008A
:10550000029100900196012300227821284600F0A4
:10551000DBF94FF0FF30802104F5227202900191F7
:105520000092012340227821284600F0CDF9B620D0
:105530008DF81D004FF0FF310DF11D00029100901C
:105540000196012300227821284600F0BDF90020B1
:105550008DF815004FF0FF310DF11500029100900C
:105560000196012300227821284600F0ADF9102091
:105570008DF80D004FF0FF310DF10D0002910090FC
:105580000196012300227821284600F09DF94FF072
:10559000FF30802104F542720290019100920123B4
:1055A00040227821284600F08FF9B7208DF81C00A2
:1055B0004FF0FF3107A802910090019601230022CD
:1055C0007821284600F080F900208DF814004FF073
:1055D000FF3105A802910090019601230022782155
:1055E000284600F071F910208DF80C004FF0FF31C3
:1055F00003A80291009001960123002278212846F9
:1056000000F062F94FF0FF30802104F562720290E1
:1056100001910092012340227821284600F054F99C
:1056200009B0F0BD2DE9F64F82B0DFF880E19DF8BA
:105630000810BEF8008041448029BFBFBEF802C0F8
:105640009DF8091001EB0C02402A9B46A8BF0020E0
:1056500080F2798000298DF800006DD09DF800203F
:105660000398203A01FB02F300EB43029DF8083057
:10567000CDF804309DF80800138800284FF0000989
:1056800055D0C24603FA09F000045FFA8AF621D524
:10569000802EBCBF5FFA8CF4402C41DA9EF80400E7
:1056A00000285FFA8BF501D015B122E0012D20D141
:1056B0002046E40806EBC4160EF108070125BC5D80
:1056C000870800EB5777FF08A0EBC70005FA00F04A
:1056D000204321E05FFA8BF56D1EAD41ED0F802E6A
:1056E000BCBF5FFA8CF4402C1ADA9EF8040068B351
:1056F00075B32046E40806EBC4160EF10807012531
:10570000BC5D870800EB57775FEAD707A0EBC700BF
:1057100005FA00F024EA00000EF1080404F806007F
:1057200009F10109019881450AF1010AAAD3921CE5
:10573000491E0CF1010C9DD19DF808004044AEF8C3
:1057400000009DF8000004B0BDE8F08F012DD0D11D
:105750002046E40806EBC4160EF108070125BC5DDF
:10576000870800EB5777FF08A0EBC70005FA00F0A9
:105770002043D1E7F0B581B006460C4615461F46DA
:10578000307848B1FBB221462A46FFF74BFF31780B
:10579000884208BF761CF3D0307801B0F0BD034AD0
:1057A0001080518070470000A0000020F42C0020E1
:1057B000FC2C002030B581B00446FFF747FB14F104
:1057C000010F054602D0054801786418FFF73EFB3B
:1057D000401BA042FAD301B030BD00BF4C2C0020CA
:1057E00070B5040001D1012070BD94F83D0028B9C6
:1057F000002184F83C102046FFF774FA242084F836
:105800003D002068016849084900016000F0C6FABF
:105810000146DFF8A8202368A1FB0220C20C5A60D1
:105820006068DFF89C30984208D34FF4967010FB04
:1058300002F2DFF89060A2FB06656A0A2068521C3B
:10584000026262689A4208D25200B1FBF2F0C0F3E1
:105850000B01042913D2042011E0A06820B902EB47
:105860004202B1FBF2F005E019204243B1FBF2F035
:1058700040F4804001050CBF012040F40040216845
:10588000C861E269206A216802430A60E06822690F
:10589000216802438A60A069626921680243CA6084
:1058A00020212068026842F001020260002020648A
:1058B00084F83D10206384F83E0070BD06BD378635
:1058C000A1860100986E12832DE9F04383B006464D
:1058D0000F4690469946FFF7B9FA054696F83D00FF
:1058E000202811D1306881698A076FD5FFF7AEFA99
:1058F000401B1A28F6D300203063202186F83D1083
:1059000086F83E0086F83C00022003B0BDE8F08334
:10591000306C042806D1002186F83C10012003B029
:10592000BDE8F083002086F83C00032003B0BDE80A
:10593000F083716A4A1C726209780161308D411EE0
:105940003185708D411E7185308D002800F0868074
:10595000306841690A066DD441694A0518D56FF46B
:10596000806141610420306400213163202086F889
:105970003D0086F83C10306C0428D6D130680168B0
:1059800041F400710160012003B0BDE8F08300BF65
:1059900014F1010FDCD024B1FFF758FA401B844208
:1059A000D6D2306C40F02000DDE73068016841F469
:1059B00000710160202086F83D00002186F83E102D
:1059C000002086F83C0003B0BDE8F08396F83C1058
:1059D000012999D0012286F83C200168CA0703D426
:1059E000016841F001010160394637680C9C0B9851
:1059F000DDF828C0D7F800E02EF4006EC7F800E00C
:105A0000212786F83D704B46402786F83E70424677
:105A100000273764C6F824C07085DFF86800F0629C
:105A20003046778D37850195009400F02DF80028D9
:105A30008AD06DE7716A4A1C726209780161308D03
:105A4000411E3185708D421E728530684269530750
:105A50007FF57AAF89B200297FF46BAF2A462146E1
:105A6000304600F0D7F800289FD0306C04287FF42F
:105A70005CAF3068016841F400710160012003B03F
:105A8000BDE8F0830000FFFF2DE9F043064681B03A
:105A90003068089C099D0F46016841F48071914669
:105AA0009846016030684169CA075AD414F1010F61
:105AB000F8D024B1FFF7CAF9401B8442F2D200208B
:105AC0003063202186F83D1086F83E0086F83C00C1
:105AD00001B00320BDE8F0834869420518D5086885
